:1000000000800020BD0100008D2200005122000070
:100010005122000051220000512200005122000014
:100020005122000051220000512200008D220000C8
:100030008D220000512200008D220000412200008C
:100040008D2200008D2200008D2200008D220000F4
:100050008D2200008D2200008D2200008D220000E4
:100060008D2200008D2200008D2200008D220000D4
:100070008D2200008D2200008D2200008D220000C4
:100080008D2200008D2200008D2200008D220000B4
:100090008D2200008D2200008D2200008D220000A4
:1000A0008D2200008D2200008D2200008D22000094
:1000B0008D2200008D2200008D2200008D22000084
:1000C0008D2200008D2200008D2200008D22000074
:1000D0008D2200008D2200008D2200008D22000064
:1000E0008D2200008D2200008D2200008D22000054
:1000F0008D220000F11000008D2200003129000047
:100100008D220000AD2E00008D2200008D22000007
:100110008D2200008D2200008D2200008D22000023
:100120008D2200008D2200008D2200008D22000013
:100130008D2200008D2200008D2200008D22000003
:100140008D2200008D2200008D2200008D220000F3
:100150008D2200008D2200008D2200008D220000E3
:100160008D220000D91300008D2200008D22000096
:100170008D2200008D2200008D2200008D220000C3
:100180008D2200008D2200008D2200008D220000B3
:100190008D2200008D2200008D2200008D220000A3
:1001A0008D2200008D2200008D2200008D22000093
:1001B0008D2200008D2200008D220000574B4CF252
:1001C000205210B51A804DF628121A8000BF00BFC9
:1001D00002F060F8524B4FF010621A60514A9A6078
:1001E000514ADA60A3F53043203B1A6812F480725A
:1001F00004D14E490A604FF4A8521A604C4B1A7849
:10020000110703D51A7842F008021A70494B4A4C7C
:100210004A482A221A704A4A00239918A14203D256
:10022000195899500433F8E7464B474900228B424E
:1002300002D243F8042BFAE74448454900235A58B0
:100240001A500433B3F5DE7FF9D1424B424A802184
:1002500003F8011B9342FBD1404B3C4A1A60404BD0
:100260000A221A70A3F5805324225A70A0221A7011
:100270009A799207FCD59A79D406FCD4394A9379B5
:1002800003F00C03082B374BF9D103221A714022DB
:100290005A719A799006FCD5324A9179314B4906C8
:1002A000FBD5314A314911600221516020221A7078
:1002B0009A7902F00C020C2AFAD12D4B2D4A1A60C1
:1002C0002D4B2E4A1A6000225A60072243F8042C54
:1002D0002B4AC3F80C2D62B600F0AAFB134B1B6827
:1002E000DA0705D5274800F0D9FA274B274A1A60C4
:1002F000274B1B785B0609D5234C244A236893427D
:1003000004D1204800F0CAFA0023236003F02EFD38
:1003100001F0C6FF01F0C4FDFEE700BF0E2005405E
:1003200030800440823F04000100002B14D00340C1
:1003300002D0074000E007405490FF1F144A00001D
:100340006087FF1F5490FF1FEC93FF1F0082FF1F69
:100350000000000000E400E05FE400E008ED00E0E1
:100360000050064000400640448004400000030165
:1003700004800440C010050014E000E0FF76010096
:100380000000202032FF71001CE00340A5C3945AF6
:1003900000F00740FFFFFFFFFFFFFFFFFFFFFFFF32
:1003A000FFFFFFFFFFFFFFFFFFFFFFFFFFFFFFFF5D
:1003B000FFFFFFFFFFFFFFFFFFFFFFFFFFFFFFFF4D
:1003C000FFFFFFFFFFFFFFFFFFFFFFFFFFFFFFFF3D
:1003D000FFFFFFFFFFFFFFFFFFFFFFFFFFFFFFFF2D
:1003E000FFFFFFFFFFFFFFFFFFFFFFFFFFFFFFFF1D
:1003F000FFFFFFFFFFFFFFFFFFFFFFFFFFFFFFFF0D
:10040000FFFFFFFFFFFFFFFFFFFFFFFFDEF9FFFF23
:1004100010B5054C237833B9044B13B10448AFF33E
:1004200000800123237010BD5490FF1F00000000C6
:10043000144A000008B5064B1BB106480649AFF345
:1004400000800648036813B1054B03B1984708BD07
:1004500000000000144A00005890FF1F5490FF1F36
:100460000000000010B5124C20464FF4FA6100F075
:10047000B5F920460F494FF4E13200F08BF92046E0
:1004800000F082F9606B03685B680B4911229847A2
:100490000A2000F0B7FA20460021012200F0F2F90C
:1004A00040F6055000F020FB002000F085FB10BD59
:1004B0009890FF1F6492FF1FC04600002DE9F04195
:1004C00086B0234B1B680493049A224B1B68D31AF3
:1004D000282B3AD9062000F015FA002835D11E4CF9
:1004E0001E4B0FCB84E80F002046102100F0F2FCD9
:1004F000254604F110081A4C02270A2655F8040B69
:100500000390039803F0D4F802460B460097204668
:1005100001F016FD23681B68204631469847454583
:10052000ECD10F4C0D4D2046B5F90C1001F0FCFC40
:1005300023681B6820460A219847054B1B680593D2
:10054000059A044B1A600023AB8106B0BDE8F08128
:10055000D490FF1F7090FF1F7490FF1F8890FF1FA3
:100560006492FF1F10B5022812D0032819D0012869
:1005700020D1114800F0CAF8104C03F0A7FB20600E
:10058000A3896FEA43436FEA5343A381012010BD5F
:100590000A4B0B4A5A609A8942F480429A810120A0
:1005A00010BD064B074A9A609A8942F400529A811C
:1005B000012010BD002010BD8490FF1F8890FF1FF8
:1005C000C3F5C84052B8164108B50120FFF7CAFF6D
:1005D000FFF774FF0220FFF7C5FFFFF76FFF03204F
:1005E000FFF7C0FFFFF76AFF08BD00BF00B583B08B
:1005F000074B1B680193019A064B1A6006480D21B0
:100600000E220B2300F00AF803B05DF804FB00BFD4
:10061000D490FF1F7090FF1F8490FF1F38B50446D1
:100620000170827043700025C570D0B2012100F0C6
:1006300077F92078012100F073F96078294600F0FD
:100640006FF9A078012100F039F9204638BD00BFCC
:10065000F0B583B007468078002100F02FF9012023
:1006600000F0D0F903210B4A4FF000460025D66276
:100670005563D36A002BFCDA946B01ABCC5401397F
:10068000B1F1FF3FF3D1B878012100F017F90198DB
:1006900003B0F0BD00C002402DE9F041044690F9DE
:1006A00003301BB1FFF7D4FFBDE8F08100780021D3
:1006B00000F004F9012000F0A5F9A078002100F075
:1006C000FDF8012000F09EF920270025A84601260C
:1006D0002078414600F0F2F8304600F093F96D00C2
:1006E000607800F00FF908B145F001052078314637
:1006F00000F0E4F8304600F085F9013FE8D1A07839
:10070000012100F0DBF82846BDE8F08108B5FFF7CD
:10071000C3FF10F0070F0ED100284FEAA040BCBF66
:100720006FEA80406FEA904002F0B0FF0022034B76
:1007300003F012F808BD0020014908BD0000D03FB9
:100740000000F87F70B582B0044699B90D4B1B6864
:100750000093009A4368D31A312B0BD80326094D16
:10076000304600F04FF92B680093009A6368D31A63
:10077000312BF5D9034B1B680193019B636002B0D9
:1007800070BD00BFD490FF1F08B50021FFF7DAFF4E
:1007900008BD00BFF8B541631B240C4D0C4E0D4F36
:1007A00002E0C82000F02EF92B7813F0FF0F09D0DB
:1007B000337813F0030F05D03A68074B1B68D31A40
:1007C000182B01D8013CECD1F8BD00BF5092FF1F9F
:1007D0006092FF1FD490FF1FE493FF1F08B5002312
:1007E00083634360084609B100F00CF908BD00BFFF
:1007F00038B504460D46406B03685B68094906221C
:100800009847606B29460A22002301F051FB606B78
:1008100003685B68044908229847322000F0F2F828
:1008200038BD00BFD4460000DC46000070B5044669
:100830000D46037A23B3606B03689B6898470028D2
:10084000F9D0002614E0606B0368DB689847C3B2F8
:10085000632B06D0762B02D0582B09D107E0C0B20B
:1008600070BD20462946FFF7C3FF632070BD267286
:10087000606B03689B6898470028E4DC632070BDC8
:10088000632070BD38B50446154621B101230372BB
:100890000021FFF7CBFF257238BD00BF044B0022BB
:1008A0001A6004490A60044A106010221A607047F6
:1008B00014D0034004D0034000D0034021281ED8A8
:1008C0000F4B53F8303093F8802212F0FF0F08D00E
:1008D00019B1012283F880207047012283F800219A
:1008E0007047074B03EBC000436821B11A6842F020
:1008F00003021A6070471A6822F002021A607047F9
:1009000030470000212806D8044B53F8303093F8C4
:100910000002C0B270470020704700BF304700009F
:1009200021284AD8254B03EBC0035B68012911D06D
:1009300004291DD0214A52F83020002082F880027C
:1009400000292FD0022931D003291FD040F20312F1
:100950001A607047194A52F83020012182F880123B
:100960004FF4A2721A601A6822F020021A607047CF
:10097000124A52F83020012182F880124FF4A272FC
:100980001A601A6842F020021A6070474FF48072B1
:100990001A601A6842F002021A601A6822F0010214
:1009A0001A6070474FF480721A6070474FF480727B
:1009B0001A601A6842F003021A607047304700005C
:1009C00072B60C4B1B680C4A12680C49096862B677
:1009D00011F0806F02D0322B88BF0132C3F5BB33D8
:1009E000FF330749A1FB03039B094FF47A7000FB17
:1009F0000230704718E000E0D490FF1F04ED00E0E3
:100A0000ABAAAAAA38B50546FFF7DAFF044625B90E
:100A100038BD013D0AD004F57A74FFF7D1FF001B01
:100A2000B0F57A7FF5D201F05FFBF6E738BD00BF85
:100A300010B5264B4FF400021A604FF080721A6016
:100A40004FF000721A604FF080621A604FF000623F
:100A50001A6000201E4B18604BF6FF7104331960BA
:100A600028231C4A136008321360083213600832CE
:100A700013600832136008321360083213600832C2
:100A800013600922144C226004F580540434206061
:100A9000043421600434236008342360143C226051
:100AA00004F5FE24043420600C4801600C490B60FE
:100AB00008310B600B4B1A6001F038FB4FF4C87023
:100AC000FFF7A0FF01F008F810BD00BF08E100E04B
:100AD000048003400C8003400080034008800B40EA
:100AE0000C800B4000800B40254B1A6842F480625A
:100AF0001A600023234A1370234A1370234A137089
:100B0000234A1370234A1370234B1B7813B1152B00
:100B100005D008E040F21332204B1A6003E040F2A7
:100B200013321F4B1A601F4B1B78012B02D0052B71
:100B300005D008E04FF451721B4B1A6003E04FF4EC
:100B400051721A4B1A60C0F34432194B1A70C0F339
:100B500047125A7000F01F00987204229A70022106
:100B6000D9745A7588221A743C22DA704022114BCB
:100B70001A704FF40052A3F229331A60704700BF75
:100B8000348004406491FF1FDD90FF1F6C91FF1FB4
:100B90006591FF1FDC90FF1F2091FF1F40A00440C4
:100BA00018C004406087FF1F44A004401CC00440DC
:100BB00000A006402DE400E0164B9B7803F0EC0308
:100BC00000F00302134310F0040F18BF43F01003AA
:100BD000104A937000F00F03042B04D1134692794E
:100BE00042F040029A710B4B5A7902F0EF0210F07A
:100BF000100F18BF42F01002064B5A719B7903F098
:100C0000EF0310F0200F18BF43F01003014A937157
:100C1000704700BF00A0064010B5144B1B6813F4CA
:100C2000806F21D0124B1B7813F0FF0F06D0104CB1
:100C300001F05AFA237813F0FF0FF9D14FF4005264
:100C40000C4B1A6000230C4AD37040F203120B497C
:100C50000A6004310A600A4A13700A4A13700A4B88
:100C60001B680BB101221A7010BD00BF3480044014
:100C7000DC90FF1F84E100E000A0064040A004409B
:100C80006491FF1FDD90FF1FD890FF1F10B5044631
:100C9000094A137813F0FF0FFBD120460121FFF71B
:100CA0003FFE20460021FFF709FE044B53F8342095
:100CB000034B1A6010BD00BFDC90FF1F30470000DF
:100CC0006891FF1F10B40C4609B140F08000184B2A
:100CD0001B78984228D0174A126812F4806F21D0EE
:100CE00003F07F03012B02D0052B04D006E0002285
:100CF000114B1A6002E00022104B1A60002C0CBF4E
:100D00004422602200F07F03012B02D0052B05D086
:100D100008E042F44072084B1A6003E042F440726B
:100D2000064B1A60024B18705DF8044B704700BF09
:100D30006087FF1F3480044044A004401CC004406E
:100D4000114B1B7898421ED0104A126812F4806F23
:100D500017D013B1152B04D006E000220C4B1A60FB
:100D600002E000220B4B1A6010B1152805D008E0F4
:100D700040F21332064B1A6003E040F21332054B87
:100D80001A60014B187070472091FF1F3480044097
:100D900040A0044018C0044010B50D4B1B6813F46C
:100DA000806F12D021280CD80A4C0B4B53F83030EE
:100DB00023600121FFF7B4FD236800221A7001208F
:100DC00010BD0020034B186010BD002010BD00BFF7
:100DD00034800440D890FF1F30470000114B1B683F
:100DE00013F4806F1BD0122804D140F202320E4B54
:100DF0001A600DE0142804D140F202320B4B1A6045
:100E000006E00B4B5A7B02F0FE025A73002070473B
:100E1000074B5A7B42F001025A73012070470020B1
:100E2000704700BF348004400CA0044014C004404C
:100E300000A006402DE9F04107461F4B1B6813F444
:100E4000806F37D01D4B1B680BB101221A701C4BF1
:100E50001C780134402C28BF00241A4D1A4EDFF8AC
:100E60006C8017E001F026FA40280FDC337913F08C
:100E7000800F0FD02B780133402B28BF002318F8A8
:100E80000320D2B2F271DBB22B7003E0FF2801DD48
:100E900001F02AF92B78DBB29C42E3D0FFB20B4B76
:100EA0001F5501220A4B1A70E4B2054B1C70BC227C
:100EB000054BDA70BDE8F081348004406891FF1F73
:100EC0006C91FF1F6591FF1F00A00640E090FF1F7F
:100ED000DC90FF1F2DE9F84F0746284B1B6813F4E1
:100EE000806F49D0264B1B680BB101221A7007EBAB
:100EF000010B5F453DD2DFF89890224EDFF88C80E1
:100F0000DFF890A099F800400134402C28BF00245D
:100F10003578EDB2A54220D1BC2388F8033001F02A
:100F2000C9F9402811DC98F8043013F0800F10D074
:100F300033780133402B28BF00231AF80320D2B2A4
:100F400088F80720DBB2337003E0FF2801DD01F0F1
:100F5000CBF83378DBB29D42E1D017F8013B0AF8B9
:100F600004300122084B1A70E4B289F800405F4552
:100F7000C8D1BC22054BDA70BDE8F88F348004403C
:100F80006891FF1F6591FF1FDC90FF1F00A00640C6
:100F90006C91FF1FE090FF1F10B5064B1B7813F0FC
:100FA000FF0F06D0034C01F09FF8237813F0FF0FDA
:100FB000F9D110BDDC90FF1F064B1B78DBB2064A4F
:100FC0001278D2B293422CBF3F3202F1FF32D01AD4
:100FD000704700BF6C91FF1F6591FF1F054B18788C
:100FE000C0B2054B1B78DBB2984238BF4030C01A04
:100FF000704700BF6491FF1FDD90FF1F10B4184BB6
:101000001A78D2B2174B1B78DBB29A4218D0013350
:101010003F2B18D81449C85CC0B2DCB211490C701F
:1010200012490968C9B19A4203D300E00023D31AD8
:1010300001E04032D31A1A2B0FDC00230B700CE0B6
:101040004FF0FF3009E0084B1878C0B20021054B83
:101050001970064B19680029E8D15DF8044B7047F8
:101060006491FF1FDD90FF1F2491FF1FD890FF1F89
:10107000094B1A78D2B2094B1B78DBB29A4207D0DF
:101080000133402B28BF0023054AD05CC0B2704713
:101090004FF0FF30704700BF6491FF1FDD90FF1FCE
:1010A0002491FF1F0D4B1B6813F4806F14D00C4B61
:1010B000DA7802F0CB02DA7040225A74DA7842F021
:1010C0003402DA70074B1A78D2B2074B1A70074B0A
:1010D0001B680BB100221A70704700BF34800440B7
:1010E00000A00640DD90FF1F6491FF1FD890FF1FF6
:1010F00070B43D4B1B7913F0300F33D072B63A4BBE
:101100009B7D03F0FF022BB9374BDA7940225A74EA
:1011100062B627E062B6354B1978C9B2344B1C78F9
:10112000E4B2314D334EEB79D8B24B1C402B28BF83
:101130000023A3421CBFF0541946531E13F0FF02B4
:10114000F1D1CAB2294B1A702B4B1B6853B1A14283
:101150002EBFC4EB0101C4F1400409192729C4BF03
:1011600001221A70204BDA78D2B212F0800F27D009
:101170001B7913F0800F23D0204B1C78E4B2204B56
:101180001B78DBB29C4210D017491E4D01E0A342F0
:101190000BD00133402B28BF00230879E85CC0B294
:1011A000C871087DC0B20728F1D9DBB214490B70B1
:1011B0000D4B1B7913F0800F02D07C210A4BD970A4
:1011C00012F0400F0ED0084B1B7913F0400F09D0DE
:1011D00000220D4B1A700D4B1B6803B11A703C2294
:1011E000014BDA7070BC704700A006406491FF1F8D
:1011F000DD90FF1F2491FF1FD890FF1F6C91FF1FF0
:101200006591FF1FE090FF1FDC90FF1F6891FF1F9B
:1012100030B40E4B1B7843F002020D4C04EBC204B9
:1012200060600C48007800280CBF8824C82444EA79
:101230000141074D45F8321080F00100054A107059
:1012400083F00103014A137030BC7047D891FF1F2F
:101250000080FF1F5192FF1F10B4431E032B11D8B3
:1012600072B60A4A52F8230050B14268074941F861
:101270002320074A32F813400188611A22F813101C
:1012800062B600E000205DF8044B7047C891FF1F74
:10129000D493FF1F013803280DD872B6074B53F8BB
:1012A00020302BB1002001305B68002BFBD100E027
:1012B000002062B670470020704700BF1C92FF1FDD
:1012C00038B572B601231B491B4C5A1812F8012C71
:1012D00012F0080F24D09A0054F832506DB9164B12
:1012E00003EBC20108304860144943F83210144B34
:1012F0001A78013A1A7062B638BD42F0010254F809
:1013000032506DB90C4B03EBC201083048600D49F7
:1013100043F832100A4B1A78013A1A7062B638BD97
:101320000133052BD1D162B60022054B1A7000F0B3
:1013300037FC38BD684800000080FF1F880040006F
:101340004692FF1FC800400010B4431E032B37D83D
:10135000400140F010001C4A104472B61B4AD25C97
:10136000032A09D8DFE802F019021B05083002221F
:1013700016E00830042213E0154A52F823201AB967
:10138000134A42F8231003E0124A52F82320516016
:10139000104A42F8231062B612E0032200E0052250
:1013A0000A4CE25401F10803436000F00803002BEB
:1013B0000CBF8823C8230A8843EA0243036062B64D
:1013C0005DF8044B704700BF0080FF1F8491FF1F32
:1013D0001C92FF1F2C92FF1F2DE9F84FA34CDFF842
:1013E000E092DFF8E0A2DFF8E0B22578EDB215F088
:1013F000040F1DD09E4B1B7813F0FF0F16D09D4B92
:101400001B7803F0FF022BB1531EDBB2994A137015
:1014100003B900BE984B1B7803F0FF0233B1531E93
:10142000DBB2954A13700BB900F016FD042323704C
:1014300015F0080F00F0E48299F80030DBB21D09C6
:1014400040F021828D4D9E0805EBC6035A6855F881
:101450003630C3F38303013B0C2B00F21082DFE82C
:1014600013F0CB01CB010E020E020E020E020E0291
:101470000E02E8010E020E020E020D0080491368F2
:101480000B6052684A607F4A45F8362000227E4948
:101490000A607A490A618A6101217C4A11709BB213
:1014A00040F28162934218D8B3F5D06F2ED2B3F5D3
:1014B000817F00F01E8106D8802B00F0C980822B2E
:1014C00000F0CC8066E140F20232934200F02681C7
:1014D000B3F5A06F00F062815CE142F22102934219
:1014E00000F0868107D8B3F5086F00F0AB80B3F544
:1014F000106F11D04EE142F22122934200F041815F
:1015000042F22132934200F0498143E1604B5D6831
:10151000002D40F0188130E1594B9A78544B1A70E5
:10152000564D05F180062B6A13F0800F03D0686AD0
:10153000083800F035FB0835B542F4D1DFF88C816E
:1015400000263746534AB05828B1456800F028FBBA
:101550000DB12846F9E700234E4973504E4AB35067
:101560004E4BF05828B1456800F01AFB0DB12846E3
:10157000F9E7002349497350494AB35028F8023F1C
:10158000484BFB5C023B032B0AD8DFE803F0020662
:1015900002060022434BDA5502E00122414BDA55A4
:1015A00001370436102ECDD100223F4B1A70012591
:1015B0003E4EDFF81C81314F05EB080313F8013C68
:1015C00006F8043B13F0080F2DD000F0C9FA48B11B
:1015D000A90007EB451200F108035360344A47F8AD
:1015E000312007E0AB00002247F833202E4B1A7859
:1015F00001321A7000F0B4FA58B1AB0043F00103A5
:1016000007EBC30100F108024A601E4A47F8332085
:1016100009E0AB0043F00103002247F83320224BDE
:101620001A7801321A70AA0042F00201002347F82A
:10163000313042F0030247F8323001351D4B9E42F3
:10164000BAD11EE20A4B1B781B4D2B700127AAE072
:10165000194D00232B706B700227A4E0084B9B8868
:10166000042B37D90F22154B1A70C1E08020074098
:101670005092FF1FD991FF1F5292FF1F0080FF1F42
:101680003C92FF1FC80040007091FF1F5192FF1F46
:101690006C480000C891FF1F7491FF1F1C92FF1F30
:1016A0002C92FF1F8491FF1F4692FF1FC42007400A
:1016B00088004000D42007404892FF1FC020074008
:1016C000902007409420074098200740D293FF1FA6
:1016D00068480000A04A0021117051709F4A12F81A
:1016E000233013F0020F5CD09B4D01232B70022797
:1016F00059E09B4B9B8803F07F03042B02DC984A44
:1017000052881AB10F22954B1A7071E0934A12F861
:10171000231021F0020102F82310B2E1904B9B88C4
:1017200003F07F03042B02DC8D4A52881AB10F228A
:101730008A4B1A705CE0894A12F8231041F00201CA
:1017400002F823109DE1864B5E889F88854BA3F1AC
:101750000C02114633F80C0CB04209D133F80A0CD4
:10176000B84205D1360A032E0CBF2F7817891AE02C
:101770000D690C330C32002DEBD10F22774B1A7010
:1017800036E0794B1A68794B1A60754B9A78784B2A
:101790001A7076E10F22714B1A7029E000273D463E
:1017A00001E002276C4D6E4BDB889F4228BF1F462D
:1017B000402F34BF3E46402628463146FFF728FDDD
:1017C0003544BF1B03D13F2E00F2608110E0402F53
:1017D00034BF3E46402628463146FFF719FD3544C2
:1017E000BF1B01D13F2E03D9624B1D60624B1F808E
:1017F00001238AF8003042E0594B198842F2210354
:10180000994212D15D4BD81D12F8011B03F8011F3C
:101810008342F9D15A4B1B68862B02D10F22594BB8
:101820001A7000200146FFF7F3FC574B45F836309D
:1018300025E0504B1E68BEB14F4FB7F80080B8F19D
:10184000400F34BF4546402530462946FFF7E0FCAF
:10185000C5EB08039BB23B800BB9402D01D1354449
:1018600000E00025434B1D603D4B1B88B3F5A06F86
:1018700005D13B4B00225A709B788BF80030012336
:101880008AF80030B9E0414E9F0806EBC708D8F847
:101890000420A2F10800013DEDB213F0080F47D07B
:1018A00000F07EF93A4B53F825304BB35A6838496B
:1018B00041F8252003F10802C8F80420354A525D9A
:1018C000032A12D8DFE802F002060A0E0321314A89
:1018D00051550AE002212F4A515506E005212D4AB3
:1018E000515502E004212B4A515518F0080F0CBF46
:1018F0008822C8221B8842EA034346F837307CE03E
:10190000244B5B5D032B0BD8DFE803F077770206EF
:101910000022204B5A5570E001221E4B5A556CE0B4
:1019200018F0080F0CBF022203221A4B5A5564E02C
:1019300056F837301B0C22F8083C002B55D00023FA
:1019400022F8063C42F8043C134B53F825302BBBDD
:10195000114B43F8250025E04892FF1FC0200740A7
:101960003C92FF1F78480000D490FF1FE493FF1FB4
:101970006092FF1F7091FF1F4492FF1FDB93FF1FB8
:10198000DC93FF1FD991FF1FC80040000080FF1F9C
:101990001C92FF1F8491FF1FC891FF1F3F4B53F8FC
:1019A000253058603D4B43F825003D4B33F815106A
:1019B00032F8082C0A4423F8152000F0D1F860B161
:1019C00000F10803C8F8043018F0080F354B364A08
:1019D00008BF134646F837300FE0002346F837308B
:1019E000324B1A7801321A7007E018F0080F2D4BAD
:1019F0002D4A08BF134646F8373008232370F4E415
:101A000015F0010F22D02A4902230B700022294B26
:101A10001A70294B24481860284C5C60986028484C
:101A2000D8601A619A610D20264B1870FF23264852
:101A300003700838037018300270244A13709F2214
:101A4000234B1A7001230B70BDE8F88F15F0800F3F
:101A500005D00D221B4B1A708022403B1A7015F0E6
:101A6000020F06D0184B1A78D2B21A700222083B25
:101A70001A7015F0100F0ED01022164B1A70BDE818
:101A8000F88F00200146FFF7C3FBB1E6284600218E
:101A9000FFF7BEFBACE6BDE8F88F00BF7491FF1FF7
:101AA000D493FF1FC8004000880040004692FF1FEB
:101AB00094200740D891FF1F0080FF1F8891FF1FCF
:101AC000DC91FF1FC0200740882007408C20074082
:101AD000842007408020074008B501F05BFA00230E
:101AE0001B491A465A50C81842600833882BF9D14E
:101AF000184B1A6842F480221A60154BC3F3072171
:101B0000154A1170C3F30741143211701B0E0432D1
:101B10001370FF23343A137008321370783A13703D
:101B200001238432137000216C3211707C3A1370DF
:101B300070220A4B1A704FF40072A3F241331A60FC
:101B4000102203F1C04303F5C8231A7008BD00BF7B
:101B50000080FF1F348004409C20074049E400E0DF
:101B600072B60D4B1A68B2FA82F30B2B02D962B629
:101B7000002070474FF00041D94022EA0102064997
:101B80000A6062B6054903EBC303DB00C8180022F4
:101B9000CA504260704700BF6487FF1F0084FF1F68
:101BA00008B50F4BC31A0F4AA2FB03131B090B2BDB
:101BB00014D80D4A12783AB10C4A127812F0FF0F7D
:101BC00002D0FFF77DFB08BD72B6094A4FF0004115
:101BD00021FA03F311681943116062B608BD00BF12
:101BE0000084FF1F398EE3384692FF1F5092FF1F7B
:101BF0006487FF1F10B5134B1B6853B9124B1B783A
:101C000013F0FF0F18D00320FFF726FB0D4B1860D1
:101C1000A8B10C4B186843885A1C03441C7A0388EB
:101C20009A4206D3FFF7BCFF0022064B1A602046FB
:101C300010BD4280204610BD4FF0FF3010BD4FF068
:101C4000FF3010BD5C92FF1F5092FF1F08B50D4B77
:101C50001B6883B90C4B1B7813F0FF0F08D00320CF
:101C6000FFF7FAFA074B186028B94FF0FF3008BDAC
:101C70004FF0FF3008BD034B1B685A881344187A95
:101C800008BD00BF5C92FF1F5092FF1F044B988855
:101C9000044B1B681BB11A885B88D31A1844704721
:101CA000D493FF1F5C92FF1F10B50B4B1B7813F0F2
:101CB000FF0F0FD0094B186820B1FFF771FF00220A
:101CC000064B1A6003242046FFF7C6FA10B1FFF74F
:101CD00067FFF8E710BD00BF5092FF1F5C92FF1F27
:101CE0002DE9F04704460122374B1A700E460029B1
:101CF00064D0DFF8E080DFF8E0909A46334FD8F800
:101D0000003083BB99F8003013F0FF0F06D100229A
:101D10002D4B1A704FF0FF30BDE8F0874AF2F925DD
:101D20000420FFF7B7FA07280AD801238AF8003001
:101D3000FFF716FFC8F80000A8B900238AF80030A2
:101D4000013D01D03B7833B10122204B1A704FF096
:101D5000FF30BDE8F08700F0C7F999F8003013F0C4
:101D6000FF0FDDD1D3E700233B70D8F800104A887D
:101D7000C2F14005AE4238BF354602F108030B44BC
:101D80002A444A80761B3DB1254414F8012B03F800
:101D9000012BAC42F9D100E025464B883F2B07D9F7
:101DA00040230B800420FFF7CFFA0023C8F800304F
:101DB0000522074B1A700EB12C46A0E70020024BFB
:101DC0001870BDE8F08700BF5392FF1F5892FF1FA5
:101DD0005292FF1F5492FF1F5092FF1F00B583B015
:101DE00002AB03F8010D18460121FFF779FF03B09C
:101DF0005DF804FB10B5144B1B7813F0FF0F21D0D6
:101E00000122124B1A70124B196851B10024114B68
:101E10001C704B880B800420FFF796FA0C4B1C605B
:101E20000DE0FFF79DFE014630B10022094B1A700C
:101E30000420FFF789FA02E00122064B1A70002203
:101E4000024B1A7010BD00BF5092FF1F5392FF1F2C
:101E50005492FF1F5292FF1F08B50E4B1B7813F0D0
:101E6000FF0F16D10C4B196841B14B880B80042031
:101E7000FFF76AFA0022084B1A6008BDFFF770FEF0
:101E8000014618B10420FFF75FFA08BD0122034B99
:101E90001A7008BD5392FF1F5492FF1F5292FF1FEA
:101EA00008B5FEF7DFFAFEF78FFB00F01DF9FAE741
:101EB000F0B58BB0164622B903681B68C9B29847C3
:101EC0002FE0012A08BF0A2621B930228DF82520EB
:101ED000212417E021243746B1FBF6F506FB151542
:101EE000EDB22246092D94BF30353735EDB20DF1F4
:101EF000280E724402F8245CB1FBF7F111B1013CE9
:101F0000E4B2E9E733B1013CE4B20AAB23442D2249
:101F100003F8242C03685B6801A92144C4F1220260
:101F200098470BB0F0BD00BF08B50029BABF4942C1
:101F30002D2300230A22FFF7BBFF08BDFFFFFFFF91
:101F40002DE9F04F87B0814616461F469DF8408028
:101F5000104619460022002301F070FE28B107F157
:101F600000431F464FF0010A01E04FF0000AB8F1AC
:101F7000000F6ED04FF0000B0022414B3EA5D5E97B
:101F800000451046194622462B4601F0E5FB024665
:101F90000B460BF1010B5FFA8BF18845F1D82AE073
:101FA0003E462046294652465B4601F0D5FB044694
:101FB0000D4601F06BFEC0B2771CFFB206AB1E44AB
:101FC00000F1300306F8103C01F060FB02460B46BE
:101FD0002046294601F00CFA04460D464745DFD15C
:101FE00001E04FF00108D9F800305B68484602A9CB
:101FF000424698473CE03046394601F0FBF904463A
:102000000D4601F043FE064601F030FB02460B464A
:102010002046294601F0ECF904460D464846314673
:102020000A225346FFF744FF01902E238DF8083013
:10203000B8F10F0F34BF43460F23002BD1D003F16B
:1020400001085FFA88F801264FF0000ADFF834B083
:10205000A7E7304639460022094B01F0CBF901F0E1
:1020600015FE014648460A225346FFF721FF01901C
:10207000019807B0BDE8F08F000000A09999B93F22
:102080000000E03F0000244008B5FFF7FFFD08BD59
:1020900008B5FFF7AFFD08BD08B5FFF7D7FD08BDD0
:1020A00008B5FFF7A7FE08BD08B5FFF7FDFD08BDA1
:1020B00008B50846FFF792FE08BD00BF08B5084600
:1020C0001146FFF70DFE08BD704700BF044B00220C
:1020D0001A714FF47A7199601A73024A1A60704744
:1020E0006492FF1F4848000008B50F4B1B78CBB91E
:1020F00001220D4B1A70FFF7C9FD08B1FFF7E4FF8D
:10210000FEF76CFF08B101F01BF800F087FB08B187
:1021100001F0B8F800F054FE08B101F055F90022C2
:10212000014B1A7008BD00BF7492FF1F60223A4B2A
:102130001A70E12201331A70384B1B78082B10D12A
:10214000012203F1804303F56C331A6013233449F1
:102150000B6001F5FF2101F2FC710A60314A136046
:102160001FE00A2B0DD139222F4B1A6013232C4963
:102170000B6001F5FF2101F2FC710A60294A13602E
:102180000FE00C2B0CBF35223D22274B1A60122387
:1021900023490B6001F5FF2101F2FC710A60214A1D
:1021A0001360224B1B7833B10123214A136002F5DF
:1021B0000022136005E000231D4A136002F500228F
:1021C00013601C4B1B78012B06D880231A4A13601E
:1021D00002F5002213601AE0042B06D88423164A65
:1021E000136002F50022136011E0082B06D8852346
:1021F000114A136002F50022136008E0102B94BF0F
:10220000862387230C4A136002F500221360012203
:102210000A4B1A70704700BF004007406887FF1FD5
:102220000CB003400CB00B4008B003407692FF1F87
:1022300020B003406987FF1F24B003407592FF1F41
:10224000024B1A6801321A60704700BFD490FF1F1A
:1022500008B50D4C236813F4802F01D0FFF7BCF8AC
:10226000236813F4806F01D0FEF742FF236813F454
:10227000006F01D000F05CFB236813F4805FE9D0AD
:1022800000F014FEE6E700BF3480044008B5FFF715
:10229000DFFF00BF1022014B1A807047002005406D
:1022A000704700BF024A1368184410601846704710
:1022B0006C87FF1FEFF31383ABB9EFF31083ABB958
:1022C000EFF3058323B10F2B05D9094A985C03E08E
:1022D0004FF4807000E00020EFF311833BB18342A4
:1022E00038BF184670474FF0FF30704700207047E6
:1022F000F0E300E030B40023B0FBF2F402FB14047E
:102300001D46092C94BF30343734E4B2CC54B0FBB2
:10231000F2F008B10133EFE70D4400226A709342F6
:1023200007DD885CCC5C8C54C8540132013B9A4276
:10233000F7DB084630BC7047254B1A6842F4006250
:102340001A600023234A1370234A1370234A137020
:10235000234A1370234A1370234B1B78092B02D096
:102360001A2B05D008E040F21332204B1A6003E02C
:1023700040F213321E4B1A601E4B1B780A2B02D000
:102380001F2B05D008E04FF451721B4B1A6003E07D
:102390004FF45172194B1A60C0F34432184B1A7043
:1023A000C0F347125A7000F01F00987204229A700E
:1023B0000221D9745A7588221A743C22DA7040229C
:1023C000104B1A704FF40042A3F22B331A6070477F
:1023D00034800440E892FF1F7D92FF1FF092FF1FA0
:1023E000E992FF1F7C92FF1F7087FF1F0CB0044013
:1023F00004D004407187FF1F10B0044000D0044097
:1024000000B006402FE400E0164B9B7803F0EC038D
:1024100000F00302134310F0040F18BF43F0100341
:10242000104A937000F00F03042B04D113469279E5
:1024300042F040029A710B4B5A7902F0EF0210F011
:10244000100F18BF42F01002064B5A719B7903F02F
:10245000EF0310F0200F18BF43F01003014A9371EF
:10246000704700BF00B0064010B5144B1B6813F452
:10247000006F21D0124B1B7813F0FF0F06D0104CC9
:10248000FFF732FE237813F0FF0FF9D14FF400422B
:102490000C4B1A6000230C4AD37040F203120B4914
:1024A0000A6004310A600A4A13700A4A13700A4B20
:1024B0001B680BB101221A7010BD00BF34800440AC
:1024C0007C92FF1F84E100E000B006400CB00440A5
:1024D000E892FF1F7D92FF1F7892FF1F10B5044600
:1024E000094A137813F0FF0FFBD120460121FEF7B4
:1024F00017FA20460021FEF7E1F9044B53F8342087
:10250000034B1A6010BD00BF7C92FF1F30470000D4
:10251000EC92FF1F10B40C4609B140F08000184B3C
:102520001B78984228D0174A126812F4805F21D095
:1025300003F07F030A2B02D01F2B04D006E00022F9
:10254000114B1A6002E00022104B1A60002C0CBFE5
:102550004422602200F07F030A2B02D01F2B05D0FB
:1025600008E042F44072084B1A6003E042F4407203
:10257000064B1A60024B18705DF8044B704700BFA1
:102580007187FF1F3480044010B0044000D0044025
:10259000124B1B78984220D0114A126812F4805FC7
:1025A00019D0092B02D01A2B04D006E000220D4BC3
:1025B0001A6002E000220C4B1A60092802D01A2887
:1025C00005D008E040F21332064B1A6003E040F2F7
:1025D0001332054B1A60014B187070477087FF1F4C
:1025E000348004400CB0044004D0044010B50D4BBE
:1025F0001B6813F4006F12D021280CD80A4C0B4B27
:1026000053F8303023600121FEF78AF92368002255
:102610001A70012010BD0020034B186010BD00206F
:1026200010BD00BF348004407892FF1F3047000087
:102630000D4B1B6813F4006F13D017280AD140F21A
:1026400002320A4B1A600A4B5A7B42F001025A735B
:1026500001207047064B5A7B02F0FE025A7300209D
:1026600070470020704700BF3480044008B0044029
:1026700000B006402DE9F04107461F4B1B6813F4DC
:10268000006F37D01D4B1B680BB101221A701C4B19
:102690001C780134282C28BF00241A4D1A4EDFF86C
:1026A0006C8017E0FFF706FE40280FDC337913F04B
:1026B000800F0FD02B780133282B28BF002318F868
:1026C0000320D2B2F271DBB22B7003E0FF2801DDF0
:1026D000FFF70AFD2B78DBB29C42E3D0FFB20B4B35
:1026E0001F5501220A4B1A70E4B2054B1C70BC2224
:1026F000054BDA70BDE8F08134800440EC92FF1F96
:10270000F092FF1FE992FF1F00B006408092FF1F6A
:102710007C92FF1F2DE9F84F0746284B1B6813F4E6
:10272000006F49D0264B1B680BB101221A7007EBD2
:10273000010B5F453DD2DFF89890224EDFF88C8088
:10274000DFF890A099F800400134282C28BF00241D
:102750003578EDB2A54220D1BC2388F80330FFF7CD
:10276000A9FD402811DC98F8043013F0800F10D038
:1027700033780133282B28BF00231AF80320D2B264
:1027800088F80720DBB2337003E0FF2801DDFFF794
:10279000ABFC3378DBB29D42E1D017F8013B0AF87D
:1027A00004300122084B1A70E4B289F800405F45FA
:1027B000C8D1BC22054BDA70BDE8F88F34800440E4
:1027C000EC92FF1FE992FF1F7C92FF1F00B00640B2
:1027D000F092FF1F8092FF1F10B5064B1B7813F07D
:1027E000FF0F06D0034CFFF77FFC237813F0FF0F99
:1027F000F9D110BD7C92FF1F064B1B78DBB2064A55
:102800001278D2B293422CBF273202F1FF32D01A93
:10281000704700BFF092FF1FE992FF1F054B187829
:10282000C0B2054B1B78DBB2984238BF4030C01AAB
:10283000704700BFE892FF1F7D92FF1F10B4184B36
:102840001A78D2B2174B1B78DBB29A4218D00133F8
:102850003F2B18D81449C85CC0B2DCB211490C70C7
:1028600012490968C9B19A4203D300E00023D31A80
:1028700001E04032D31A1A2B0FDC00230B700CE05E
:102880004FF0FF3009E0084B1878C0B20021054B2B
:102890001970064B19680029E8D15DF8044B7047A0
:1028A000E892FF1F7D92FF1FA892FF1F7892FF1FE3
:1028B000094B1A78D2B2094B1B78DBB29A4207D087
:1028C0000133402B28BF0023054AD05CC0B27047BB
:1028D0004FF0FF30704700BFE892FF1F7D92FF1F4F
:1028E000A892FF1F0D4B1B6813F4006F14D00C4B04
:1028F000DA7802F0CB02DA7040225A74DA7842F0C9
:102900003402DA70074B1A78D2B2074B1A70074BB1
:102910001B680BB100221A70704700BF348004405E
:1029200000B006407D92FF1FE892FF1F7892FF1FC4
:1029300070B43D4B1B7913F0300F33D072B63A4B65
:102940009B7D03F0FF022BB9374BDA7940225A7492
:1029500062B627E062B6354B1978C9B2344B1C78A1
:10296000E4B2314D334EEB79D8B24B1C402B28BF2B
:102970000023A3421CBFF0541946531E13F0FF025C
:10298000F1D1CAB2294B1A702B4B1B6853B1A1422B
:102990002EBFC4EB0101C4F1400409192729C4BFAB
:1029A00001221A70204BDA78D2B212F0800F27D0B1
:1029B0001B7913F0800F23D0204B1C78E4B2204BFE
:1029C0001B78DBB29C4210D017491E4D01E0A34298
:1029D0000BD00133282B28BF00230879E85CC0B254
:1029E000C871087DC0B20728F1D9DBB214490B7059
:1029F0000D4B1B7913F0800F02D07C210A4BD9704C
:102A000012F0400F0ED0084B1B7913F0400F09D085
:102A100000220D4B1A700D4B1B6803B11A703C223B
:102A2000014BDA7070BC704700B00640E892FF1F9F
:102A30007D92FF1FA892FF1F7892FF1FF092FF1F49
:102A4000E992FF1F8092FF1F7C92FF1FEC92FF1FF5
:102A5000174B1A6842F480521A600023154A13700B
:102A6000154A1370154A1370154A1370154A1370DE
:102A700040F21331144A11604FF451710432116065
:102A8000C0F34431114A1170C0F34711517000F086
:102A90001F009072937013742C23D37040220C4B40
:102AA0001A704FF40032A3F22D331A60704700BF42
:102AB000348004406493FF1FF992FF1F6C93FF1F43
:102AC0006593FF1FF892FF1F08C0044000C0064036
:102AD00031E400E0164B9B7803F0EC0300F00302B6
:102AE000134310F0040F18BF43F01003104A937003
:102AF00000F00F03042B04D11346927942F04002F8
:102B00009A710B4B5A7902F0EF0210F0100F18BFB8
:102B100042F01002064B5A719B7903F0EF0310F05C
:102B2000200F18BF43F01003014A9371704700BF94
:102B300000C0064010B5144B1B6813F4805F21D011
:102B4000124B1B7813F0FF0F06D0104CFFF7CCFA96
:102B5000237813F0FF0FF9D14FF400320C4B1A60B9
:102B600000230C4AD37040F203120B490A6004316F
:102B70000A600A4A13700A4A13700A4B1B680BB1A9
:102B800001221A7010BD00BF34800440F892FF1F6C
:102B900084E100E000C0064008C004406493FF1FC9
:102BA000F992FF1FF492FF1F10B50446094A1378EB
:102BB00013F0FF0FFBD120460121FDF7B1FE2046A7
:102BC0000021FDF77BFE044B53F83420034B1A60C1
:102BD00010BD00BFF892FF1F304700006893FF1F31
:102BE00010B40C4609B140F08000104B1B7898429D
:102BF00019D00F4A126812F4805F12D003F07F03DD
:102C0000082B02D100220B4B1A60002C0CBF44226F
:102C1000602200F07F03082B03D142F44072054B81
:102C20001A60024B18705DF8044B70477287FF1FE3
:102C3000348004400CC00440704700BF10B50D4BF9
:102C40001B6813F4805F12D021280CD80A4C0B4B60
:102C500053F8303023600121FDF762FE2368002223
:102C60001A70012010BD0020034B186010BD002019
:102C700010BD00BF34800440F492FF1F30470000B5
:102C80000D4B1B6813F4805F13D00E280AD140F25D
:102C900002320A4B1A600A4B5A7B42F001025A7305
:102CA00001207047064B5A7B02F0FE025A73002047
:102CB00070470020704700BF3480044004C00440C7
:102CC00000C006402DE9F04107461F4B1B6813F476
:102CD000805F37D01D4B1B680BB101221A701C4B53
:102CE0001C780134282C28BF00241A4D1A4EDFF816
:102CF0006C8017E0FFF7DEFA40280FDC337913F021
:102D0000800F0FD02B780133282B28BF002318F811
:102D10000320D2B2F271DBB22B7003E0FF2801DD99
:102D2000FFF7E2F92B78DBB29C42E3D0FFB20B4B0A
:102D30001F5501220A4B1A70E4B2054B1C70AC22DD
:102D4000054BDA70BDE8F081348004406893FF1FC2
:102D50006C93FF1F6593FF1F00C00640FC92FF1F8E
:102D6000F892FF1F38B505460C4629B115F8010B3E
:102D7000FFF7A8FF013CF9D138BD00BF10B5064BE5
:102D80001B7813F0FF0F06D0034CFFF7ADF9237843
:102D900013F0FF0FF9D110BDF892FF1F064B1B78FF
:102DA000DBB2064A1278D2B293422CBF273202F12C
:102DB000FF32D01A704700BF6C93FF1F6593FF1F4F
:102DC000054B1878C0B2054B1B78DBB2984238BF70
:102DD0004030C01A704700BF6493FF1FF992FF1F75
:102DE00010B4184B1A78D2B2174B1B78DBB29A4248
:102DF00018D001333F2B18D81449C85CC0B2DCB2DC
:102E000011490C7012490968C9B19A4203D300E014
:102E10000023D31A01E04032D31A1A2B0FDC00230F
:102E20000B700CE04FF0FF3009E0084B1878C0B28F
:102E30000021054B1970064B19680029E8D15DF88F
:102E4000044B70476493FF1FF992FF1F2493FF1FE9
:102E5000F492FF1F094B1A78D2B2094B1B78DBB2F0
:102E60009A4207D00133402B28BF0023054AD05C8B
:102E7000C0B270474FF0FF30704700BF6493FF1F30
:102E8000F992FF1F2493FF1F054B1A78D2B2054B0E
:102E90001A70054B1B680BB100221A70704700BFF7
:102EA000F992FF1F6493FF1FF492FF1F2F4B1B79B2
:102EB00013F0200F23D02D4BDB79D9B22C4B1B788C
:102EC0000133402B28BF00232A4A1278D2B29A42FB
:102ED00004D0294AD154D9B2254A1170274A116821
:102EE00069B1274A1278D2B293422EBFC2EB0303D4
:102EF000C2F140029B18272BC4BF01230B701B4B50
:102F0000DB78DBB213F0800F1CD0184A127912F074
:102F1000800F17D01B4A1178C9B2194A1278D2B261
:102F2000914203D16C21114AD1700BE00132282A61
:102F300028BF00221449885CC0B20C49C871D2B2C3
:102F40000F490A7013F0400F0ED0084B1B7913F095
:102F5000400F09D000220D4B1A700D4B1B6803B1B6
:102F60001A702C22014BDA70704700BF00C0064077
:102F70006493FF1FF992FF1F2493FF1FF492FF1F1A
:102F80006593FF1F6C93FF1FFC92FF1FF892FF1FBA
:102F90006893FF1F00B585B072B61B4B70221A7084
:102FA00041211A4A11700F21013A117080221A70C2
:102FB0001A46137813F0800FFBD0154B186862B6D1
:102FC000144B98429CBF00EB8000400001A90A22EC
:102FD000FFF790F99DF804307BB908E001A9595C2E
:102FE00031B19180023201330A2BF7D100E0002386
:102FF00001335B00084A137003E0074A5380012342
:10300000ECE705B05DF804FB000002400700024059
:10301000080002407F9698000088FF1F08B50368EB
:103020001B68C9B2984708BD08B503681B68C9B2D8
:10303000984708BD08B503681B68C9B2984708BD22
:1030400008B503681B68C9B2984708BD08B54B08A6
:1030500003F1376000F5D830B0FBF1F0FDF744FD27
:1030600008BD00BF10B514464B0803F1376000F5EA
:10307000D830B0FBF1F0FDF737FD2046FDF79CFDA1
:1030800010BD00BF08B5FDF7C7FD08BD08B508466F
:10309000FDF7FCFD08BD00BF08B50846FDF750FE72
:1030A00008BD00BF08B508461146FDF70BFE08BD78
:1030B00008B50846FDF770FE003018BF012008BDB6
:1030C00008B50846FDF78AFE003018BF012008BD8C
:1030D00008B5FDF783FF08BD08B5FDF7C9FF08BDBA
:1030E00008B5FDF78BFF08BD08B5FDF755FF08BD16
:1030F00008B5FDF7D7FF08BD08B5FDF75DFF08BDB2
:1031000008B50846FDF796FE012008BD08B508463B
:10311000FDF790FE012008BD10B514460846114683
:10312000FDF7D8FE204610BD38B50D46084601F023
:10313000FFF8044628462146FDF7CCFE204638BD60
:10314000704700BF044B00221A714FF47A719960E6
:103150001A73024A1A6070477093FF1FC848000034
:1031600008B503681B68C9B2984708BD08B503686D
:103170001B68C9B2984708BD08B503681B68C9B287
:10318000984708BD08B503681B68C9B2984708BDD1
:1031900008B54B0803F1376000F5D830B0FBF1F00B
:1031A000FFF7CAF808BD00BF10B514464B0803F17D
:1031B000376000F5D830B0FBF1F0FFF7BDF82046DE
:1031C000FFF722F910BD00BF08B5FFF74DF908BDA4
:1031D00008B50846FFF782F908BD00BF08B50846E4
:1031E000FFF7D6F908BD00BF08B508461146FFF73E
:1031F00091F908BD08B50846FFF7F8F9003018BF87
:10320000012008BD08B50846FFF712FA003018BFC4
:10321000012008BD08B5FFF701FB08BD08B5FFF7A1
:1032200047FB08BD08B5FFF709FB08BD08B5FFF768
:10323000D3FA08BD08B5FFF755FB08BD08B5FFF781
:10324000DBFA08BD08B50846FFF714FA012008BDEF
:1032500008B50846FFF70EFA012008BD10B5144660
:1032600008461146FFF756FA204610BD38B50D4600
:10327000084601F05DF8044628462146FFF74AFA61
:10328000204638BD704700BF044B00221A714FF42E
:103290007A7199601A73024A1A6070478093FF1F0F
:1032A0002849000008B503681B68C9B2984708BDE3
:1032B00008B503681B68C9B2984708BD08B503681C
:1032C0001B68C9B2984708BD08B503681B68C9B236
:1032D000984708BD08B54B0803F1B76000F55840A2
:1032E000B0FBF1F0FFF7B4FB08BD00BF10B514460A
:1032F0004B0803F1B76000F55840B0FBF1F0FFF761
:10330000A7FB2046FFF7E6FB10BD00BF08B5FFF79F
:1033100011FC08BD08B50846FFF746FC08BD00BF14
:1033200008B50846FFF788FC08BD00BF08B5084689
:103330001146FFF755FC08BD08B50846FFF77EFCAF
:10334000003018BF012008BD08B50846FFF798FCFB
:10335000003018BF012008BD08B5FFF731FD08BDDA
:1033600008B5FFF777FD08BD08B5FFF739FD08BDC3
:1033700008B5FFF703FD08BD08B5FFF785FD08BDDB
:1033800008B5FFF70BFD08BD08B50846FFF79AFC26
:10339000012008BD08B50846FFF794FC012008BDD0
:1033A00010B5144608461146FFF7DCFC204610BD58
:1033B00038B50D46084600F0BBFF044628462146B6
:1033C000FFF7D0FC204638BD704700BF044B0022F9
:1033D0001A714FF47A7199601A73024A1A60704731
:1033E0009093FF1F8849000081F0004102E000BF78
:1033F00083F0004330B54FEA41044FEA430594EAB5
:10340000050F08BF90EA020F1FBF54EA000C55EAEF
:10341000020C7FEA645C7FEA655C00F0E2804FEAC0
:103420005454D4EB5555B8BF6D420CDD2C4480EAA2
:10343000020281EA030382EA000083EA010180EAD2
:10344000020281EA0303362D88BF30BD11F0004F20
:103450004FEA01314FF4801C4CEA113102D0404256
:1034600061EB410113F0004F4FEA03334CEA133391
:1034700002D0524263EB430394EA050F00F0A780A9
:10348000A4F10104D5F1200E0DDB02FA0EFC22FAA4
:1034900005F2801841F1000103FA0EF2801843FA98
:1034A00005F359410EE0A5F120050EF1200E012A89
:1034B00003FA0EFC28BF4CF0020C43FA05F3C018C7
:1034C00051EBE37101F0004507D54FF0000EDCF140
:1034D000000C7EEB00006EEB0101B1F5801F1BD3E9
:1034E000B1F5001F0CD349085FEA30004FEA3C0CED
:1034F00004F101044FEA445212F5800F80F09A80E3
:10350000BCF1004F08BF5FEA500C50F1000041EBE6
:10351000045141EA050130BD5FEA4C0C404141EBEA
:10352000010111F4801FA4F10104E9D191F0000F11
:1035300004BF01460020B1FA81F308BF2033A3F194
:103540000B03B3F120020CDA0C3208DD02F1140C8B
:10355000C2F10C0201FA0CF021FA02F10CE002F1C6
:103560001402D8BFC2F1200C01FA02F120FA0CFCBF
:10357000DCBF41EA0C019040E41AA2BF01EB045108
:10358000294330BD6FEA04041F3C1CDA0C340EDC06
:1035900004F11404C4F1200220FA04F001FA02F349
:1035A00040EA030021FA04F345EA030130BDC4F107
:1035B0000C04C4F1200220FA02F001FA04F340EAFC
:1035C0000300294630BD21FA04F0294630BD94F0AD
:1035D000000F83F4801306BF81F480110134013D94
:1035E0004EE77FEA645C18BF7FEA655C29D094EA05
:1035F000050F08BF90EA020F05D054EA000C04BF83
:103600001946104630BD91EA030F1EBF002100206D
:1036100030BD5FEA545C05D14000494128BF41F00C
:10362000004130BD14F580043CBF01F5801130BD70
:1036300001F0004545F0FE4141F470014FF00000FB
:1036400030BD7FEA645C1ABF194610467FEA655CAC
:103650001CBF0B46024650EA013406BF52EA03354E
:1036600091EA030F41F4002130BD00BF90F0000F3C
:1036700004BF0021704730B54FF4806404F1320478
:103680004FF000054FF0000150E700BF90F0000F31
:1036900004BF0021704730B54FF4806404F1320458
:1036A00010F0004548BF40424FF000013EE700BF28
:1036B00042004FEAE2014FEA31014FEA02701FBFB8
:1036C00012F07F4393F07F4F81F06051704792F08A
:1036D000000F14BF93F07F4F704730B54FF4607404
:1036E00001F0004521F0004120E700BF50EA01024F
:1036F00008BF704730B54FF000050AE050EA0102FC
:1037000008BF704730B511F0004502D5404261EB6B
:1037100041014FF4806404F132045FEA915C3FF4AC
:10372000DCAE4FF003025FEADC0C18BF03325FEA45
:10373000DC0C18BF033202EBDC02C2F1200300FAFA
:1037400003FC20FA02F001FA03FE40EA0E0021FA1F
:1037500002F11444C1E600BF70B54FF0FF0C4CF409
:10376000E06C1CEA11541DBF1CEA135594EA0C0FBF
:1037700095EA0C0F00F0DEF82C4481EA030621EAFA
:103780004C5123EA4C5350EA013518BF52EA033535
:1037900041F4801143F4801338D0A0FB02CE4FF0E7
:1037A0000005E1FB02E506F00042E0FB03E54FF017
:1037B0000006E1FB03569CF0000F18BF4EF0010E0F
:1037C000A4F1FF04B6F5007F64F5407404D25FEA0B
:1037D0004E0E6D4146EB060642EAC62141EA5551BE
:1037E0004FEAC52040EA5E504FEACE2EB4F1FD0C00
:1037F00088BFBCF5E06F1ED8BEF1004F08BF5FEA7E
:10380000500E50F1000041EB045170BD06F000462F
:1038100046EA010140EA020081EA0301B4EB5C04DC
:10382000C2BFD4EB0C0541EA045170BD41F48011D4
:103830004FF0000E013C00F3AB8014F1360FDEBFF9
:10384000002001F0004170BDC4F10004203C35DAD5
:103850000C341BDC04F11404C4F1200500FA05F358
:1038600020FA04F001FA05F240EA020001F00042F9
:1038700021F0004110EBD37021FA04F642EB06016F
:103880005EEA430E08BF20EAD37070BDC4F10C0499
:10389000C4F1200500FA04F320FA05F001FA04F25D
:1038A00040EA020001F0004110EBD37041F1000149
:1038B0005EEA430E08BF20EAD37070BDC4F1200554
:1038C00000FA05F24EEA020E20FA04F301FA05F2BC
:1038D00043EA020321FA04F001F0004121FA04F264
:1038E00020EA020000EBD3705EEA430E08BF20EA34
:1038F000D37070BD94F0000F0FD101F0004640006E
:1039000041EB010111F4801F08BF013CF7D041EAEF
:10391000060195F0000F18BF704703F000465200F3
:1039200043EB030313F4801F08BF013DF7D043EAC4
:103930000603704794EA0C0F0CEA135518BF95EA7A
:103940000C0F0CD050EA410618BF52EA4306D1D101
:1039500081EA030101F000414FF0000070BD50EA20
:10396000410606BF1046194652EA430619D094EAAA
:103970000C0F02D150EA013613D195EA0C0F05D194
:1039800052EA03361CBF104619460AD181EA0301E8
:1039900001F0004141F0FE4141F470014FF00000A0
:1039A00070BD41F0FE4141F4780170BD70B54FF03B
:1039B000FF0C4CF4E06C1CEA11541DBF1CEA1355BB
:1039C00094EA0C0F95EA0C0F00F0A7F8A4EB05049D
:1039D00081EA030E52EA03354FEA013100F0888094
:1039E0004FEA03334FF0805545EA131343EA12635D
:1039F0004FEA022245EA111545EA10654FEA002612
:103A00000EF000419D4208BF964244F1FD0404F5CA
:103A1000407402D25B084FEA3202B61A65EB030526
:103A20005B084FEA32024FF480104FF4002CB6EBE3
:103A3000020E75EB030E22BFB61A754640EA0C0063
:103A40005B084FEA3202B6EB020E75EB030E22BFA3
:103A5000B61A754640EA5C005B084FEA3202B6EBE4
:103A6000020E75EB030E22BFB61A754640EA9C00A3
:103A70005B084FEA3202B6EB020E75EB030E22BF73
:103A8000B61A754640EADC0055EA060E18D04FEA31
:103A9000051545EA16754FEA06164FEAC30343EAD1
:103AA00052734FEAC2025FEA1C1CC0D111F4801F9E
:103AB0000BD141EA00014FF000004FF0004CB6E797
:103AC00011F4801F04BF01430020B4F1FD0C88BF36
:103AD000BCF5E06F3FF6AFAEB5EB030C04BFB6EB41
:103AE000020C5FEA500C50F1000041EB045170BD34
:103AF0000EF0004E4EEA113114EB5C04C2BFD4EB61
:103B00000C0541EA045170BD41F480114FF0000EE4
:103B1000013C90E645EA060E8DE60CEA135594EA60
:103B20000C0F08BF95EA0C0F3FF43BAF94EA0C0F63
:103B30000AD150EA01347FF434AF95EA0C0F7FF4D8
:103B400025AF104619462CE795EA0C0F06D152EA2C
:103B500003353FF4FDAE1046194622E750EA410610
:103B600018BF52EA43067FF4C5AE50EA41047FF421
:103B70000DAF52EA43057FF4EBAE12E74FF0FF3C86
:103B800006E000BF4FF0010C02E000BF4FF0010C57
:103B90004DF804CD4FEA410C7FEA6C5C4FEA430CD0
:103BA00018BF7FEA6C5C1BD001B050EA410C0CBF1F
:103BB00052EA430C91EA030F02BF90EA020F002081
:103BC000704710F1000F91EA030F58BF994208BFE8
:103BD00090422CBFD8176FEAE37040F001007047A5
:103BE0004FEA410C7FEA6C5C02D150EA013C07D1FC
:103BF0004FEA430C7FEA6C5CD6D152EA033CD3D047
:103C00005DF8040B704700BF8446104662468C4640
:103C10001946634600E000BF01B5FFF7B7FF002873
:103C200048BF10F1000F01BD4DF808EDFFF7F4FF9C
:103C30000CBF012000205DF808FB00BF4DF808ED27
:103C4000FFF7EAFF34BF012000205DF808FB00BF4A
:103C50004DF808EDFFF7E0FF94BF012000205DF86C
:103C600008FB00BF4DF808EDFFF7CEFF94BF012021
:103C700000205DF808FB00BF4DF808EDFFF7C4FF1A
:103C800034BF012000205DF808FB00BF4A0011D2BC
:103C900012F5001211D20DD56FF47873B3EB6252A6
:103CA0000ED44FEAC12343F0004343EA505323FAB2
:103CB00002F070474FF00000704750EA013002D127
:103CC0004FF0FF3070474FF0000070474FEA41025D
:103CD000B2F1E04324BFB3F5001CDCF1FE5C0DD96A
:103CE00001F0004C4FEAC0024CEA5070B2F1004FB4
:103CF00040EB830008BF20F00100704711F0804FB7
:103D000021D113F13872BCBF01F00040704741F47B
:103D100080114FEA5252C2F11802C2F1200C10FA7F
:103D20000CF320FA02F018BF40F001004FEAC12363
:103D30004FEAD32303FA0CFC40EA0C0023FA02F307
:103D40004FEA4303CCE77FEA625307D150EA0133DD
:103D50001EBF4FF0FE4040F44000704701F00040AD
:103D600040F0FE4040F40000704700BF70B50F4EB9
:103D70000F4D761BB61007D0043D0024013455F8D2
:103D8000043F9847A642F9D10A4E0B4D761B00F02E
:103D90002BFEB61008D0043D0024013455F8043F32
:103DA0009847A642F9D170BD70BD00BFF44900002C
:103DB000F4490000104A0000F4490000024B01469B
:103DC000186800F003B800BF408CFF1F2DE9F04FCA
:103DD00001F10B05162D83B0064627D935F00705EE
:103DE00027D4A94225D8304600F08CFAB5F5FC7FDF
:103DF00026D2C14F4FEAD50C07EBCC03DC689C42BE
:103E000000F0D2816368E268A16823F003032344D1
:103E100030465D68CA6045F0010591605D6000F064
:103E200073FA0834204603B0BDE8F08F1025A9428C
:103E3000D9D900240C232046336003B0BDE8F08FAD
:103E40005FEA552C00F08A80BCF1040F00F260811B
:103E50004FEA951C0CF1380C4FEA4C01A64F07EBCA
:103E60008101CC68A14205D10CE0002B7ADAE4682C
:103E7000A14207D0626822F00302531B0F2BF4DD2E
:103E80000CF1FF3C0CF1010C9B4B3C6903F1080E5B
:103E9000744500F07E81616821F003014A1B0F2AFE
:103EA00000F36481002AC3F814E0C3F810E06ADA72
:103EB000B1F5007F80F03A81C90803EBC1004FEAF9
:103EC000A1085A688168A1604FF0010909FA08F851
:103ED00048EA0202E0605A608460CC604FEAAC03BA
:103EE0000120984090425BD8024206D12CF0030C8E
:103EF000400002420CF1040CFAD007EBCC08444617
:103F0000E146E3689C4207D145E1002A80F25681F0
:103F1000DB689C4200F03F81596821F003014A1B95
:103F20000F2AF2DD1C46D3F80CC054F8088F59193B
:103F300045F0010942F00105C3F804903046C8F885
:103F40000CC0CCF8088079613961C1F80CE0C1F887
:103F500008E04D608A5000F0D7F963E77E214FF00A
:103F60003F0C7BE72244E3685068A16840F00105FC
:103F7000CB6030469960556000F0C6F908342046A1
:103F800003B0BDE8F08F214430464B6843F0010395
:103F90004B6000F0B9F90834204603B0BDE8F08F5B
:103FA000BC68636823F00309A94504D3C5EB090382
:103FB0000F2B00F39180514B514A1968136801335C
:103FC00005EB010A04EB090B00F061810AF5805A48
:103FD0000AF10F0A2AF47F6A2AF00F0A3046514686
:103FE000019200F093F9B0F1FF3F8046019A00F092
:103FF0000081834500F2FA80DFF810C1DCF8003060
:10400000C3455344CCF8003000F04A8112683C4963
:1040100001321BBFCBEB080B5B44C1F80080CCF82E
:10402000003018F0070300F01381C3F10802C3F554
:10403000805390440833C244CAF30B0ACAEB030A04
:1040400051463046CDF804C000F060F9431CDDF85D
:1040500004C000F03581C8EB0002524442F0010276
:10406000DCF80030C7F808805344BC42C8F804208C
:10407000CCF80030DFF894A015D0B9F10F0F40F262
:10408000EA806168A9F10C0222F0070201F0010E3A
:10409000A118052042EA0E0E0F2AC4F804E0486079
:1040A000886000F21181174ABC6811688B4288BF92
:1040B0001360154A11688B4288BF1360626822F052
:1040C00003029542C5EB020301D80F2B04DC3046F6
:1040D00000F01AF90024A5E6621943F0010345F047
:1040E000010565603046BA60536000F00DF9083490
:1040F000204603B0BDE8F08F448CFF1FA893FF1F3C
:104100005090FF1FA493FF1FA093FF1FAC93FF1FAE
:10411000BCF1140F61D9BCF1540F00F28F804FEA4B
:10412000153C0CF16E0C4FEA4C0197E64B0A042B40
:1041300058D9142B00F2AE8003F15B02500007EB5C
:104140008000DFF8BC818368834200F08A805A686F
:1041500022F00302914202D29B689842F7D1D968BB
:104160007A68E160A3608C60DC60B7E6611942F0B8
:10417000010745F001056560304659611961C1F8D4
:104180000CE0C1F808E04F608A50083400F0BCF839
:1041900048E65A68A2E609F1010919F0030F04F193
:1041A00008047FF4AEAE2DE004F108036469A34275
:1041B00008BF0CF1020C3FF467AE23E619441C461D
:1041C0004868DB6854F8082F40F001054D60304620
:1041D000D3609A6000F098F824E60CF15B0C4FEA8B
:1041E0004C013BE68A0938325000A8E7BC423FF454
:1041F00003AFBC68626822F0030262E7D8F800806F
:1042000098457BD11CF0030FA8F108030CF1FF3C8B
:10421000F4D17B6823EA00037B60400098423FF6BC
:10422000BFAE00283FF4BCAE0342CC467FF465AE7F
:10423000400003420CF1040CFAD05EE6BCF5AA7F04
:104240001AD84FEAD53C0CF1770C4FEA4C0105E641
:104250004FF48053EFE60123C8F8043044460022AF
:104260002FE791100120D8F8042000FA01F10A4349
:10427000C8F80420194674E740F254539C451BD8F3
:104280004FEA954C0CF17C0C4FEA4C01E6E50AF143
:10429000100AA3E6542B1FD80A0B6E3250004EE7CB
:1042A000CBF30B0100297FF4B1AE0AEB0901BA6828
:1042B00041F001015160F6E6FC214FF07E0CCDE5A6
:1042C00001224FF0000ACBE604F10801304600F06D
:1042D000D5F8DAF80030E6E6B3F5AA7F03D8CA0BC2
:1042E000773250002BE740F25452934203D88A0CA5
:1042F0007C32500023E7FC207E2220E77B688CE79D
:10430000448CFF1F704700BF704700BF38B5074C93
:104310000023054608462360FDF7C4FF431C00D078
:1043200038BD2368002BFBD02B6038BDE893FF1FFE
:1043300020F0030110F00300C0F1000051F8043B2D
:1043400000F1040C4FEACC0C6FF000021CBF22FA03
:104350000CF213434FF0010C4CEA0C2C4CEA0C4CC1
:10436000A3EB0C0222EA030212EACC1204BF51F8BA
:10437000043B0430F4D013F0FF0F1FBF013013F4DF
:104380007F4F013013F47F0F18BF0130704700BF1B
:10439000024B13B1024800F005B87047000000005E
:1043A000B1430000014600200246034600F034B944
:1043B00038B5094D094C641BA41018BF05EB8405E2
:1043C00005D0013C55F8043D9847002CF9D1BDE8D3
:1043D000384000F01DBB00BF0000000000000000DE
:1043E000F8B5234D0F460446FFF78CFFAB685E68B7
:1043F00026F00306F11B01F6EF7121F47F6121F035
:104400000F01A1F58057B7F5805F07DB204600213B
:10441000FFF77CFFAB683344984204D02046FFF797
:1044200073FF0020F8BD20467942FFF76FFF01308F
:104430000DD0104BAA681968F61B46F001062046FD
:10444000C91B56601960FFF75FFF0120F8BD2046C9
:104450000021FFF75BFFAB68C21A0F2ADEDD064DB5
:1044600004492D6842F00102401B5A600860D5E7FC
:10447000448CFF1FAC93FF1F5090FF1F2DE9F041AC
:104480000D460646002955D0FFF73CFF55F8041CA1
:10449000DFF874C121F00103A5F10804E218DCF88B
:1044A00008005768904227F0030769D011F0010116
:1044B000576032D00021D0194068C00706D43B4471
:1044C000906800294ED0D268C260906043F001022B
:1044D0006260E350E1B9B3F5007F2DD35A0A042A94
:1044E0006AD89809383041000CEB810C4649DCF859
:1044F0000820624566D0516821F003018B4202D248
:1045000092689445F7D1D368E360A2609C60D46060
:104510003046BDE8F041FFF7F7BE55F8085C641B74
:104520000CF10808A06840452B4443D0E568C560FD
:10453000A860C0E7BDE8F081DB080CEBC3020125F1
:10454000DCF804009168A1609B1005FA03F318439E
:10455000E260CCF8040094603046CC60BDE8F041E5
:10456000FFF7D2BE294DA842ADD143F00102CCF8ED
:104570001440CCF81040E060A0606260E350C7E7F0
:104580001F44CB0707D455F8083CE41A1F44A2681F
:10459000E368D3609A601E4B1B6847F001029F429C
:1045A0006260CCF80840B3D31A4B30461968FFF765
:1045B00017FFADE701217EE7142A0CD802F15B005A
:1045C000410091E74B688010012505FA00F0034394
:1045D0004B60134698E7542A03D8180B6E304100FD
:1045E00082E7B2F5AA7F03D8D80B773041007BE78A
:1045F00040F254518A4203D8980C7C30410073E752
:10460000FC217E2070E700BF448CFF1F4C8CFF1FF5
:104610004C90FF1FA893FF1FF0B5274C2668D6F8D3
:10462000484185B00746002C41D065681F2D1EDD2E
:10463000224818B94FF0FF3005B0F0BD4FF4C870F4
:10464000039102920193FFF7B9FB0399029A019B30
:1046500004460028EED0D6F848512560002060605E
:104660000546C6F84841C4F88801C4F88C013FB932
:10467000AB1C00200135656044F8231005B0F0BD87
:1046800004EB85004FF0010CC0F88820D4F8886155
:104690000CFA05F21643022FC4F88861C0F80831FD
:1046A000E6D1D4F88C311A43C4F88C21E0E706F542
:1046B000A674C6F84841B8E7E4490000BD3D0000D3
:1046C000564D4450565F317C315F564D4450560D27
:1046D0000A00FFFF564D4450435F00005F564D44B3
:1046E00050430D0A000000004572726F723A20417B
:1046F0007474656D707420746F207365742061200C
:10470000726561642D6F6E6C792076617269616289
:104710006C65206F7220646174612074797065200B
:104720006E6F7420737570706F727465640D0A001B
:104730004008FE4340A004404408FE4344A0044017
:104740000018FE4300C004403000FE433090044097
:104750003400FE43349004401C18FE431CC0044047
:104760001018FE4310C004400818FE4308C004405F
:104770000C18FE430CC004400C10FE430CB0044067
:104780001010FE4310B004401810FE4318B004404F
:104790001C10FE431CB004401410FE4314B004402F
:1047A0000418FE4304C004400010FE4300B004405F
:1047B0000008FE4300A004400408FE4304A0044097
:1047C0000C08FE430CA004400808FE4308A0044067
:1047D0001418FE4314C004401818FE4318C00440C7
:1047E0000410FE4304B004400810FE4308B0044027
:1047F0001400FE43149004404C08FE434CA00440B7
:104800000420FE4304D004402410FE4324B004409E
:104810002010FE4320B004402810FE4328B004407E
:104820002C10FE432CB004400020FE4300D0044076
:104830004808FE4348A004401000FE431090044086
:104840000000000000000000B1200000BD200000BA
:10485000892000009120000099200000A120000084
:10486000A92000000000000000151915000100003B
:104870007487FF1F1200000000020000A087FF1FC6
:104880004300000000030000FC87FF1F0000000041
:10489000010309048887FF1F0000000002030904C8
:1048A000E487FF1F00000000030309040088FF1FC6
:1048B00000000000000000000000000000000000F8
:1048C000000000000000000001310000193100006C
:1048D000D1300000E1300000D9300000E9300000A4
:1048E0004D30000065300000853000008D30000044
:1048F00099300000A5300000B1300000C130000048
:10490000F1300000F93000001D30000029300000B7
:104910003530000041300000293100000D31000029
:104920000000000000000000453200005D32000081
:1049300015320000253200001D3200002D3200002B
:1049400091310000A9310000C9310000D1310000CF
:10495000DD310000E9310000F531000005320000D2
:10496000353200003D320000613100006D31000041
:1049700079310000853100006D32000051320000B5
:10498000000000000000000089330000A133000097
:1049900059330000693300006133000071330000B7
:1049A000D5320000ED3200000D3300001533000059
:1049B000213300002D33000039330000493300005B
:1049C0007933000081330000A5320000B1320000CD
:1049D000BD320000C9320000B13300009533000041
:1049E000430000001888FF1FF8B500BFF8BC08BCE2
:1049F0009E4670479143000035040000ED0500001D
:104A0000CD2000004531000089320000CD33000088
:044A1000F8B500BF36
:104A140001000000FFFFFFFF0A040000EC93FF1FEA
:104A2400090A08001201010102000040C0168304B3
:104A34000002010203010000180354006500650030
:104A44006E00730079006400750069006E006F00E9
:104A540009024300020100C03209040000010202FD
:104A640001000524001001052401010104240206AB
:104A74000524060001070582031000400904010013
:104A8400020A000000070503024000000705840233
:104A9400400000001603550053004200200053005C
:104AA40065007200690061006C00000004030904E1
:104AB4000C030000000000000000000000000000E3
:104AC400000000000000000000000000048BFF1F35
:104AD4006C8BFF1FD48BFF1F000000000000000040
:104AE40000000000000000000000000000000000C2
:104AF400000000000000000000000000E049000089
:104B040000000000000000000000000000000000A1
:104B14000000000000000000000000000000000091
:104B24000000000000000000000000000000000081
:104B34000000000000000000000000000000000071
:104B44000000000000000000000000000000000061
:104B54000000000000000000000000000000000051
:104B64000000000000000000000000000000000041
:104B740001000000000000000E33CDAB34126DE6DE
:104B8400ECDE05000B000000000000000000000047
:104B94000000000000000000000000000000000011
:104BA4000000000000000000000000000000000001
:104BB40000000000000000000000000000000000F1
:104BC40000000000000000000000000000000000E1
:104EF4001888FF1F0000000000000000448CFF1F02
:104F0400448CFF1F4C8CFF1F4C8CFF1F548CFF1FC5
:104F1400548CFF1F5C8CFF1F5C8CFF1F648CFF1F75
:104F2400648CFF1F6C8CFF1F6C8CFF1F748CFF1F25
:104F3400748CFF1F7C8CFF1F7C8CFF1F848CFF1FD5
:104F4400848CFF1F8C8CFF1F8C8CFF1F948CFF1F85
:104F5400948CFF1F9C8CFF1F9C8CFF1FA48CFF1F35
:104F6400A48CFF1FAC8CFF1FAC8CFF1FB48CFF1FE5
:104F7400B48CFF1FBC8CFF1FBC8CFF1FC48CFF1F95
:104F8400C48CFF1FCC8CFF1FCC8CFF1FD48CFF1F45
:104F9400D48CFF1FDC8CFF1FDC8CFF1FE48CFF1FF5
:104FA400E48CFF1FEC8CFF1FEC8CFF1FF48CFF1FA5
:104FB400F48CFF1FFC8CFF1FFC8CFF1F048DFF1F54
:104FC400048DFF1F0C8DFF1F0C8DFF1F148DFF1F01
:104FD400148DFF1F1C8DFF1F1C8DFF1F248DFF1FB1
:104FE400248DFF1F2C8DFF1F2C8DFF1F348DFF1F61
:104FF400348DFF1F3C8DFF1F3C8DFF1F448DFF1F11
:10500400448DFF1F4C8DFF1F4C8DFF1F548DFF1FC0
:10501400548DFF1F5C8DFF1F5C8DFF1F648DFF1F70
:10502400648DFF1F6C8DFF1F6C8DFF1F748DFF1F20
:10503400748DFF1F7C8DFF1F7C8DFF1F848DFF1FD0
:10504400848DFF1F8C8DFF1F8C8DFF1F948DFF1F80
:10505400948DFF1F9C8DFF1F9C8DFF1FA48DFF1F30
:10506400A48DFF1FAC8DFF1FAC8DFF1FB48DFF1FE0
:10507400B48DFF1FBC8DFF1FBC8DFF1FC48DFF1F90
:10508400C48DFF1FCC8DFF1FCC8DFF1FD48DFF1F40
:10509400D48DFF1FDC8DFF1FDC8DFF1FE48DFF1FF0
:1050A400E48DFF1FEC8DFF1FEC8DFF1FF48DFF1FA0
:1050B400F48DFF1FFC8DFF1FFC8DFF1F048EFF1F4F
:1050C400048EFF1F0C8EFF1F0C8EFF1F148EFF1FFC
:1050D400148EFF1F1C8EFF1F1C8EFF1F248EFF1FAC
:1050E400248EFF1F2C8EFF1F2C8EFF1F348EFF1F5C
:1050F400348EFF1F3C8EFF1F3C8EFF1F448EFF1F0C
:10510400448EFF1F4C8EFF1F4C8EFF1F548EFF1FBB
:10511400548EFF1F5C8EFF1F5C8EFF1F648EFF1F6B
:10512400648EFF1F6C8EFF1F6C8EFF1F748EFF1F1B
:10513400748EFF1F7C8EFF1F7C8EFF1F848EFF1FCB
:10514400848EFF1F8C8EFF1F8C8EFF1F948EFF1F7B
:10515400948EFF1F9C8EFF1F9C8EFF1FA48EFF1F2B
:10516400A48EFF1FAC8EFF1FAC8EFF1FB48EFF1FDB
:10517400B48EFF1FBC8EFF1FBC8EFF1FC48EFF1F8B
:10518400C48EFF1FCC8EFF1FCC8EFF1FD48EFF1F3B
:10519400D48EFF1FDC8EFF1FDC8EFF1FE48EFF1FEB
:1051A400E48EFF1FEC8EFF1FEC8EFF1FF48EFF1F9B
:1051B400F48EFF1FFC8EFF1FFC8EFF1F048FFF1F4A
:1051C400048FFF1F0C8FFF1F0C8FFF1F148FFF1FF7
:1051D400148FFF1F1C8FFF1F1C8FFF1F248FFF1FA7
:1051E400248FFF1F2C8FFF1F2C8FFF1F348FFF1F57
:1051F400348FFF1F3C8FFF1F3C8FFF1F448FFF1F07
:10520400448FFF1F4C8FFF1F4C8FFF1F548FFF1FB6
:10521400548FFF1F5C8FFF1F5C8FFF1F648FFF1F66
:10522400648FFF1F6C8FFF1F6C8FFF1F748FFF1F16
:10523400748FFF1F7C8FFF1F7C8FFF1F848FFF1FC6
:10524400848FFF1F8C8FFF1F8C8FFF1F948FFF1F76
:10525400948FFF1F9C8FFF1F9C8FFF1FA48FFF1F26
:10526400A48FFF1FAC8FFF1FAC8FFF1FB48FFF1FD6
:10527400B48FFF1FBC8FFF1FBC8FFF1FC48FFF1F86
:10528400C48FFF1FCC8FFF1FCC8FFF1FD48FFF1F36
:10529400D48FFF1FDC8FFF1FDC8FFF1FE48FFF1FE6
:1052A400E48FFF1FEC8FFF1FEC8FFF1FF48FFF1F96
:1052B400F48FFF1FFC8FFF1FFC8FFF1F0490FF1F45
:1052C4000490FF1F0C90FF1F0C90FF1F1490FF1FF2
:1052D4001490FF1F1C90FF1F1C90FF1F2490FF1FA2
:1052E4002490FF1F2C90FF1F2C90FF1F3490FF1F52
:1052F4003490FF1F3C90FF1F3C90FF1F00000200F2
:04530400FFFFFFFFA9
:00000001FF
